:100000000C942A000C9434000C9434000C943400AA
:100010000C9434000C9434000C9434000C94340090
:100020000C9434000C9434000C9434000C94340080
:100030000C9434000C9434000C9434000C94340070
:100040000C9434000C9434000C9434000C94340060
:100050000C94340011241FBECFE5D4E0DEBFCDBF29
:100060000E9436000C9423010C9400008FEF81BB9A
:1000700084BBE0E0F0E061E040E452E009EF14EA24
:10008000D0EBC9E9B2E9A2E80F2EF8EFFF2EF02D70
:100090006894EE24E7F878E920E030E011C062BB14
:1000A00045BB83EC99E00197F1F700C0000052BB1B
:1000B00045BB83EC99E00197F1F700C00000319651
:1000C000E333F10564F312BA83E390E062BB45BB0E
:1000D000E3ECF9E03197F1F700C0000052BB05BB3B
:1000E000E3ECF9E03197F1F700C00000019771F7F8
:1000F00012BA83E390E062BB45BBE3ECF9E03197D1
:10010000F1F700C0000052BB15BBE3ECF9E03197FA
:10011000F1F700C00000019771F712BA83E390E095
:1001200062BB45BBE3ECF9E03197F1F700C000009A
:1001300052BBD5BBE3ECF9E03197F1F700C000000A
:10014000019771F712BA83E390E062BB45BBE3EC21
:10015000F9E03197F1F700C0000052BBC5BBE3ECFA
:10016000F9E03197F1F700C00000019771F712BA7A
:1001700083E390E062BB45BBE3ECF9E03197F1F734
:1001800000C0000052BBB5BBE3ECF9E03197F1F7DA
:1001900000C00000019771F712BA83E390E062BBE0
:1001A00045BBE3ECF9E03197F1F700C0000052BB2A
:1001B000A5BBE3ECF9E03197F1F700C0000001972F
:1001C00071F712BA83E390E062BB45BBE3ECF9E060
:1001D0003197F1F700C0000052BBF5BAE3ECF9E04B
:1001E0003197F1F700C00000019771F712BA83E36D
:1001F00090E062BB45BBE3ECF9E03197F1F700C05A
:10020000000052BBE5BAE3ECF9E03197F1F700C02A
:100210000000019771F712BA83E390E062BB45BB1F
:10022000E3ECF9E03197F1F700C0000052BB75BB79
:10023000E3ECF9E03197F1F700C00000019771F7A6
:0A02400012BAF9013DCFF894FFCF88
:00000001FF
