S012000030746F39395F377365672E73726563B8
S11300000C942A000C9434000C9434000C943400A6
S11300100C9434000C9434000C9434000C9434008C
S11300200C9434000C9434000C9434000C9434007C
S11300300C9434000C9434000C9434000C9434006C
S11300400C9434000C9434000C9434000C9434005C
S11300500C94340011241FBECFE5D4E0DEBFCDBF25
S11300600E9478000C94B0000C9400008430910538
S113007021F16CF481309105B1F11CF4892B81F1EB
S11300802EC08230910599F0039749F513C087304B
S11300909105E1F034F48530910591F00697F9F477
S11300A012C088309105A9F00997C9F415C024EA53
S11300B03FEF1BC020EB3FEF18C029E93FEF15C00D
S11300C022E93FEF12C022E83FEF0FC028EF3FEFD5
S11300D00CC020E83FEF09C028E93FEF06C00895AF
S11300E020E430E002C029EF3FEF822F932F0895E0
S11300F08FEF81BB84BBE12CF12CC12CD12C992432
S113010093946894AA24A1F825C092BAB5BA83EC52
S113011099E00197F1F700C00000A2BAC8010E945B
S1130120360085BB83EC99E00197F1F700C000002D
S1130130219759F70F5F1F4F0A30110519F0C3E3D8
S1130140D0E0E3CF9FEFE91AF90A8AE0E816F10458
S11301500CF07601C7010E943600B82E8601EFCF5D
S1070160F894FFCF3D
S9030000FC
