:100000000C942A000C9434000C9434000C943400AA
:100010000C9434000C9434000C9434000C94340090
:100020000C9434000C9434000C9434000C94340080
:100030000C9434000C9434000C9434000C94340070
:100040000C9434000C9434000C9434000C94340060
:100050000C94340011241FBECFE5D4E0DEBFCDBF29
:100060000E9436000C944D000C9400008FEF81BB71
:1000700084BB21E092E084E222BB15BAE3ECF9E014
:100080003197F1F700C0000092BB85BBE3ECF9E0CB
:0E0090003197F1F700C00000EFCFF894FFCFDA
:00000001FF
