S0160000377365676D656E7473696E676C652E7372656362
S11300000C942A000C9434000C9434000C943400A6
S11300100C9434000C9434000C9434000C9434008C
S11300200C9434000C9434000C9434000C9434007C
S11300300C9434000C9434000C9434000C9434006C
S11300400C9434000C9434000C9434000C9434005C
S11300500C94340011241FBECFE5D4E0DEBFCDBF25
S11300600E9436000C94BD000C9400008FEF84BBFA
S113007081BB0F2EFFE3EF2EF02D0F2EF0ECFF2EA1
S1130080F02D06E019EFDBE5C4EABFE4A0EBF6E6E9
S1130090E9E97DE662E95DE742E837E00F2EF8EF33
S11300A0DF2EF02D0F2EFFE7CF2EF02D6894BB240A
S11300B0B7F8E5BAF2BA2FE38DE093E0215080401F
S11300C09040E1F700C0000005BB12BB2FE38DE0B8
S11300D093E0215080409040E1F700C00000D5BB80
S11300E0C2BB2FE38DE093E0215080409040E1F7C4
S11300F000C00000B5BBA2BB2FE38DE093E021500C
S113010080409040E1F700C00000F5BBE2BB2FE364
S11301108DE093E0215080409040E1F700C0000062
S113012075BB62BB2FE38DE093E02150804090408B
S1130130E1F700C0000055BB42BB2FE38DE093E024
S1130140215080409040E1F700C0000035BBD2BA96
S11301502FE38DE093E0215080409040E1F700C010
S11301600000C5BAB2BA2FE38DE093E0215080407D
S11101709040E1F700C000009CCFF894FFCF50
S9030000FC
